{
  "raw": {
    "preamble": {
      "bip": "143",
      "title": "Transaction Signature Verification for Version 0 Witness Program",
      "author": [
        "Johnson Lau <jl2012@xbt.hk>",
        "Pieter Wuille <pieter.wuille@gmail.com>"
      ],
      "comments_uri": "https://github.com/bitcoin/bips/wiki/Comments:BIP-0143",
      "status": "Final",
      "type": "Standards Track",
      "created": "2016-01-03",
      "license": [
        "PD"
      ],
      "layer": "Consensus (soft fork)",
      "discussions_to": null,
      "comments_summary": "No comments yet.",
      "license_code": null,
      "post_history": null,
      "requires": null,
      "replaces": null,
      "superseded_by": null,
      "compliance_score": 82.35
    }
  },
  "metadata": {
    "last_commit": null,
    "total_commits": 0,
    "metadata_last_updated": "2025-04-21T15:51:53",
    "git_history": [],
    "contributors": 0
  },
  "insights": {
    "word_list": {
      "code": 164,
      "transaction": 33,
      "key": 32,
      "input": 31,
      "01000000": 31,
      "signature": 28,
      "hashoutputs": 28,
      "witness": 27,
      "00000000": 26,
      "hashprevouts": 25,
      "scriptcode": 25,
      "ffffffff": 25,
      "sighash": 24,
      "nversion": 24,
      "hashsequence": 24,
      "nlocktime": 24,
      "nhashtype": 24,
      "ss": 24,
      "00": 24,
      "amount": 21,
      "02": 20,
      "0": 18,
      "public": 18,
      "ref": 18,
      "not": 18,
      "nsequence": 17,
      "value": 16,
      "n": 16,
      "private": 16,
      "01": 15,
      "hash": 15,
      "outpoint": 15,
      "program": 14,
      "byte": 14,
      "op_codeseparator": 14,
      "dsha256": 14,
      "preimage": 14,
      "0000000000000000000000000000000000000000000000000000000000000000": 14,
      "all": 13,
      "single": 13,
      "if": 13,
      "bitcoin": 12,
      "txto": 12,
      "anyonecanpay": 11,
      "serialized": 11,
      "scriptpubkey": 11,
      "txin": 11,
      "txout": 11,
      "signed": 10,
      "index": 10,
      "p2wsh": 10,
      "6": 9,
      "witnessscript": 9,
      "unsigned": 9,
      "comes": 9,
      "https": 8,
      "type": 8,
      "algorithm": 8,
      "4": 8,
      "none": 8,
      "1": 8,
      "output": 8,
      "following": 8,
      "executed": 8,
      "version": 7,
      "digest": 7,
      "original": 7,
      "little": 7,
      "endian": 7,
      "below": 7,
      "uint256": 7,
      "36641869ca081e70f394c6948e8af409e18b619df2ed74aa106c1ca29787b96e01000000": 7,
      "bip": 6,
      "verification": 6,
      "data": 6,
      "sigops": 6,
      "double": 6,
      "sha256": 6,
      "size": 6,
      "does": 6,
      "being": 6,
      "spent": 6,
      "sign": 6,
      "serialization": 6,
      "removed": 6,
      "p2wpkh": 6,
      "flag": 6,
      "vin": 6,
      "8096980000000000": 6,
      "cf56210307b8ae49ac90a048e9b53357a2354b3334e9c8bee813ecb98e99a7e07e8c3ba32103b28f0c28bfab54554ae8c658ac5c3e0ce6e79ad336331f78c428dd43eea8449b21034b8113d703413d57761b8b9781957b8c0ac1dfe69f492580ca4195f50376ba4a21033400f6afecb833092a9a21cfdf1ed1376e58c5d1f47de74683123987e967a8f42103a6d48b1131e94ba04d9737d61acdaa1322008af9602b3b14862c07a1789aac162102d8b661b0b3302ee2f162b09e07a55ad5dfbe673a9f01d9f0c19617681024306b56ae": 6,
      "b168de3a00000000": 6,
      "com": 5,
      "wiki": 5,
      "proposal": 5,
      "new": 5,
      "2": 5,
      "may": 5,
      "must": 5,
      "including": 5,
      "semantics": 5,
      "scripts": 5,
      "inside": 5,
      "commit": 5,
      "last": 5,
      "0x0000": 5,
      "chashwriter": 5,
      "ser_gethash": 5,
      "gethash": 5,
      "0x1f": 5,
      "sighash_single": 5,
      "native": 5,
      "marker": 5,
      "p2sh": 5,
      "see": 5,
      "comments": 4,
      "no": 4,
      "github": 4,
      "hashing": 4,
      "script": 4,
      "checksig": 4,
      "o": 4,
      "sup": 4,
      "would": 4,
      "could": 4,
      "wallet": 4,
      "softfork": 4,
      "without": 4,
      "segregated": 4,
      "set": 4,
      "32": 4,
      "8": 4,
      "findanddelete": 4,
      "since": 4,
      "0000": 4,
      "vout": 4,
      "nin": 4,
      "keys": 4,
      "first": 4,
      "example": 4,
      "second": 4,
      "sighash_all": 4,
      "feffffff": 4,
      "redeemscript": 4,
      "0392972e2eb617b2388771abe27235fd5ac44af8e61693261550447a4c3e39da98": 4,
      "74afdc312af5183c4198a40ca3c1a275b485496dd3929bca388c4b5e31f7aaa0": 4,
      "3bb13029ce7b1f559ef5e747fcac439f1455a2ec7c5f09b72290795e70665044": 4,
      "pre": 3,
      "consensus": 3,
      "there": 3,
      "system": 3,
      "generated": 3,
      "each": 3,
      "number": 3,
      "take": 3,
      "seconds": 3,
      "verify": 3,
      "25": 3,
      "org": 3,
      "3": 3,
      "nodes": 3,
      "cold": 3,
      "however": 3,
      "implementation": 3,
      "source": 3,
      "but": 3,
      "only": 3,
      "9": 3,
      "10": 3,
      "types": 3,
      "any": 3,
      "when": 3,
      "same": 3,
      "everything": 3,
      "up": 3,
      "examples": 3,
      "otherwise": 3,
      "outputs": 3,
      "int": 3,
      "prevout": 3,
      "11000000": 3,
      "92040000": 3,
      "codeseparator": 3,
      "e9b542c5176808107ff1df906f46bb1f2583b16112b95ee5380665ba7fcfc001": 3,
      "80e68831516392fcd100d186b3c2c7b95c80b53c77e77c35ba03a66b429a2a1b": 3,
      "1976a914de4b231626ef508c9a74a8517e6783c0546d6b2888ac": 3,
      "1976a9146648a8cd4531e1ec47f35916de8e259237294d1e88ac": 3,
      "270063ab68210392972e2eb617b2388771abe27235fd5ac44af8e61693261550447a4c3e39da98ac": 3,
      "signatures": 3,
      "bc4d309071414bed932f98832b27b4d76dad7e6c1346f487a8fdbb8eb90307cc": 3,
      "9efe0c13a6b16c14a41b04ebe6a63f419bdacb2f8705b494a43063ca3cd4f708": 3,
      "layer": 2,
      "soft": 2,
      "fork": 2,
      "pieter": 2,
      "wuille": 2,
      "yet": 2,
      "bips": 2,
      "03": 2,
      "checksigverify": 2,
      "against": 2,
      "described": 2,
      "name": 2,
      "least": 2,
      "therefore": 2,
      "fixed": 2,
      "so": 2,
      "time": 2,
      "complexity": 2,
      "cve": 2,
      "2013": 2,
      "2292": 2,
      "bitcointalk": 2,
      "topic": 2,
      "problem": 2,
      "acquire": 2,
      "offline": 2,
      "signing": 2,
      "exact": 2,
      "lightweight": 2,
      "part": 2,
      "either": 2,
      "items": 2,
      "different": 2,
      "always": 2,
      "consider": 2,
      "master": 2,
      "mediawiki": 2,
      "defined": 2,
      "5": 2,
      "ctxouts": 2,
      "7": 2,
      "unchanged": 2,
      "way": 2,
      "applied": 2,
      "before": 2,
      "pairs": 2,
      "item": 2,
      "pubkey": 2,
      "ctxout": 2,
      "inputs": 2,
      "nor": 2,
      "than": 2,
      "committed": 2,
      "reference": 2,
      "sighash_anyonecanpay": 2,
      "sighash_none": 2,
      "depending": 2,
      "flags": 2,
      "already": 2,
      "contained": 2,
      "one": 2,
      "default": 2,
      "policy": 2,
      "compressed": 2,
      "transactions": 2,
      "future": 2,
      "programs": 2,
      "test": 2,
      "tests": 2,
      "fff7f7881a8099afa6940d42d1e7f6362bec38171ea3edf433541db4e4ad969f": 2,
      "eeffffff": 2,
      "ef51e1b804cc89d182d279655c3aa89e815b1b309fe287d9b2b55d57b90ec68a": 2,
      "202cb20600000000": 2,
      "1976a9148280b37df378db99f66f85c95a783a76ac7a6d5988ac": 2,
      "9093510d00000000": 2,
      "1976a9143bde42dbee7e4dbe6a21b2d50ce2f0167faa815988ac": 2,
      "ordinary": 2,
      "p2pk": 2,
      "96b827c8483d4e9b96712b6713a7b68d6e8003a781feba36c31143470b4efd37": 2,
      "52b0a642eea2fb7ae638c36f6252b6750293dbe574a806984b8e4d8548339a3b": 2,
      "863ef3e1a92afbfdb97f31ad0fc7683ee943e9abcf2501590ff8f6551f47e5e5": 2,
      "db6b1b20aa0fd7b23880be2ecbd4a98130974cf4748fb66092ac4d3ceb1a5477": 2,
      "b8b4eb0b00000000": 2,
      "1976a914a457b684d7f0d539a46a45bbc043f35b59d0d96388ac": 2,
      "0008af2f00000000": 2,
      "1976a914fd270b1ee6abcaea97fea7ad0402e8bd8ad6d77c88ac": 2,
      "db6b1b20aa0fd7b23880be2ecbd4a98130974cf4748fb66092ac4d3ceb1a547701000000": 2,
      "b0287b4a252ac05af83d2dcef00ba313af78a3e9c329afa216eb3aa2a7b4613a": 2,
      "18606b350cd8bf565266bc352f0caddcf01e8fa789dd8a15386327cf8cabe198": 2,
      "de984f44532e2173ca0d64314fcefe6d30da6f8cf27bafa706da61df8a226c83": 2,
      "shows": 2,
      "how": 2,
      "processed": 2,
      "026dccc749adc2a9d0d89497ac511f760f45c47dc5ed9cf352a58ac706453880ae": 2,
      "0255a9626aebf5e29c0e6538428ba0d1dcf6ca98ffdf086aa8ced5e0d0215ea465": 2,
      "ef546acf4a020de3898d1b8956176bb507e6211b5ed3619cd08b6ea7e2a09d41": 2,
      "03000000": 2,
      "16777215": 2,
      "endif": 2,
      "83000000": 2,
      "f52b3484edd96598e02a9c89c4492e9c1e2031f471c49fd721fe68b3ce37780d": 2,
      "483045022100f6a10b8604e6dc910194b79ccfc93e1bc0ec7c03453caaa8987f7d6c3413566002206216229ede9b4d6ec2d325be245c5b508ff0339bf1794078e20bfe0babc7ffe683": 2,
      "4730440220032521802a76ad7bf74d0e2c218b72cf0cbc867066e2e53db905ba37f130397e02207709e2188ed7f08f4c952d9d13986da504502b8c3be59617e043552f506c46ff83": 2,
      "275163ab68210392972e2eb617b2388771abe27235fd5ac44af8e61693261550447a4c3e39da98ac": 2,
      "multisig": 2,
      "using": 2,
      "69c12106097dc2e0526493ef67f21269fe888ef05c7a3a5dacab38e1ac8387f1": 2,
      "4c1d0000": 2,
      "0100000000000000": 2,
      "69c12106097dc2e0526493ef67f21269fe888ef05c7a3a5dacab38e1ac8387f14c1d0000": 2,
      "b67c76d200c6ce72962d919dc107884b9d5d0e26f2aea7474b46a1904c53359f": 2,
      "e5d196bfb21caca9dbd654cafb3b4dc0c4882c8927d2eb300d9539dd0b934228": 2,
      "4aad4830450220487fb382c4974de3f7d834c1b617fe15860828c7f96454490edd6d891556dcc9022100baf95feb48f845d5bfc9882eb6aeefa1bc3790e39f59eaa46ff7f15ae626c53e01": 2,
      "4830450220487fb382c4974de3f7d834c1b617fe15860828c7f96454490edd6d891556dcc9022100baf95feb48f845d5bfc9882eb6aeefa1bc3790e39f59eaa46ff7f15ae626c53e01": 2,
      "op_checkmultisigverify": 2,
      "bip144": 2,
      "references": 2,
      "143": 1,
      "title": 1,
      "author": 1,
      "johnson": 1,
      "lau": 1,
      "jl2012": 1,
      "xbt": 1,
      "hk": 1,
      "gmail": 1,
      "summary": 1,
      "uri": 1,
      "0143": 1,
      "status": 1,
      "final": 1,
      "standards": 1,
      "track": 1,
      "created": 1,
      "2016": 1,
      "license": 1,
      "pd": 1,
      "abstract": 1,
      "defines": 1,
      "order": 1,
      "minimize": 1,
      "redundant": 1,
      "cover": 1,
      "motivation": 1,
      "ecdsa": 1,
      "codes": 1,
      "checkmultisig": 1,
      "checkmultisigverify": 1,
      "according": 1,
      "subset": 1,
      "verified": 1,
      "given": 1,
      "detailed": 1,
      "procedure": 1,
      "article": 1,
      "en": 1,
      "op_checksig": 1,
      "unfortunately": 1,
      "weaknesses": 1,
      "signaturehash": 1,
      "proportional": 1,
      "grows": 1,
      "increases": 1,
      "while": 1,
      "mb": 1,
      "block": 1,
      "normally": 1,
      "average": 1,
      "computer": 1,
      "2015": 1,
      "1mb": 1,
      "5569": 1,
      "optimizing": 1,
      "introducing": 1,
      "some": 1,
      "reusable": 1,
      "midstate": 1,
      "becomes": 1,
      "web": 1,
      "nvd": 1,
      "nist": 1,
      "gov": 1,
      "view": 1,
      "vuln": 1,
      "detail": 1,
      "vulnid": 1,
      "140078": 1,
      "vulnerability": 1,
      "takes": 1,
      "minutes": 1,
      "http": 1,
      "rusty": 1,
      "ozlabs": 1,
      "p": 1,
      "522": 1,
      "megatransaction": 1,
      "why": 1,
      "involve": 1,
      "usually": 1,
      "online": 1,
      "network": 1,
      "they": 1,
      "request": 1,
      "specified": 1,
      "device": 1,
      "unknowing": 1,
      "makes": 1,
      "impossible": 1,
      "calculate": 1,
      "fee": 1,
      "cope": 1,
      "also": 1,
      "full": 1,
      "which": 1,
      "big": 1,
      "obstacle": 1,
      "air": 1,
      "gapped": 1,
      "safely": 1,
      "learning": 1,
      "untrusted": 1,
      "case": 1,
      "wrong": 1,
      "provided": 1,
      "invalid": 1,
      "funding": 1,
      "might": 1,
      "lost": 1,
      "php": 1,
      "181734": 1,
      "sighash_withinputvalue": 1,
      "super": 1,
      "hw": 1,
      "wallets": 1,
      "deploying": 1,
      "aforementioned": 1,
      "fixes": 1,
      "simple": 1,
      "task": 1,
      "hardfork": 1,
      "ability": 1,
      "remove": 1,
      "insert": 1,
      "stack": 1,
      "introduction": 1,
      "offers": 1,
      "opportunity": 1,
      "define": 1,
      "disrupting": 1,
      "unupgraded": 1,
      "such": 1,
      "spendable": 1,
      "arbitrary": 1,
      "blob": 1,
      "0141": 1,
      "bip141": 1,
      "specification": 1,
      "applicable": 1,
      "remain": 1,
      "except": 1,
      "changed": 1,
      "s": 1,
      "after": 1,
      "together": 1,
      "implicitly": 1,
      "used": 1,
      "omission": 1,
      "commitment": 1,
      "allows": 1,
      "permutation": 1,
      "long": 1,
      "pair": 1,
      "located": 1,
      "equivalent": 1,
      "have": 1,
      "meaning": 1,
      "0x1976a914": 1,
      "20": 1,
      "88ac": 1,
      "contain": 1,
      "contains": 1,
      "removing": 1,
      "checking": 1,
      "opcode": 1,
      "demonstrated": 1,
      "outpoints": 1,
      "neither": 1,
      "smaller": 1,
      "0001": 1,
      "greater": 1,
      "equal": 1,
      "changing": 1,
      "calculated": 1,
      "earlier": 1,
      "reused": 1,
      "other": 1,
      "whole": 1,
      "process": 1,
      "reduces": 1,
      "refer": 1,
      "reproduced": 1,
      "precise": 1,
      "lang": 1,
      "cpp": 1,
      "else": 1,
      "prevouts": 1,
      "replacing": 1,
      "scriptsig": 1,
      "hashprevout": 1,
      "static_cast": 1,
      "const": 1,
      "cscriptbase": 1,
      "locktime": 1,
      "return": 1,
      "restrictions": 1,
      "accepted": 1,
      "passed": 1,
      "sigop": 1,
      "0x02": 1,
      "0x03": 1,
      "33": 1,
      "bytes": 1,
      "break": 1,
      "rule": 1,
      "relayed": 1,
      "mined": 1,
      "preparation": 1,
      "avoid": 1,
      "potential": 1,
      "funds": 1,
      "loss": 1,
      "users": 1,
      "use": 1,
      "uncompressed": 1,
      "ensure": 1,
      "consistency": 1,
      "critical": 1,
      "behaviour": 1,
      "developers": 1,
      "should": 1,
      "their": 1,
      "implementations": 1,
      "more": 1,
      "related": 1,
      "found": 1,
      "under": 1,
      "tree": 1,
      "src": 1,
      "0100000002fff7f7881a8099afa6940d42d1e7f6362bec38171ea3edf433541db4e4ad969f0000000000eeffffffef51e1b804cc89d182d279655c3aa89e815b1b309fe287d9b2b55d57b90ec68a0100000000ffffffff02202cb206000000001976a9148280b37df378db99f66f85c95a783a76ac7a6d5988ac9093510d000000001976a9143bde42dbee7e4dbe6a21b2d50ce2f0167faa815988ac11000000": 1,
      "2103c9f4836b9a4f77fc0d81f7bcb01b7f1b35916864b9476c241ce9fc198bd25432ac": 1,
      "bbc27228ddcb9209d7fd6f36b02f7dfa6252af40bb2f1cbc7a557da8027ff866": 1,
      "00141d0f172a0ecb48aee1be1f2687d2963ae33f71a1": 1,
      "619c335025c7f4012e556c2a58b2506e30b8511b53ade95ea316fd8c3286feb9": 1,
      "025476c2e83188368da1ff3e292e7acafcdb3566bb0ad253f62fc70f07aeee6357": 1,
      "fff7f7881a8099afa6940d42d1e7f6362bec38171ea3edf433541db4e4ad969f00000000ef51e1b804cc89d182d279655c3aa89e815b1b309fe287d9b2b55d57b90ec68a01000000": 1,
      "eeffffffffffffff": 1,
      "202cb206000000001976a9148280b37df378db99f66f85c95a783a76ac7a6d5988ac9093510d000000001976a9143bde42dbee7e4dbe6a21b2d50ce2f0167faa815988ac": 1,
      "0100000096b827c8483d4e9b96712b6713a7b68d6e8003a781feba36c31143470b4efd3752b0a642eea2fb7ae638c36f6252b6750293dbe574a806984b8e4d8548339a3bef51e1b804cc89d182d279655c3aa89e815b1b309fe287d9b2b55d57b90ec68a010000001976a9141d0f172a0ecb48aee1be1f2687d2963ae33f71a188ac0046c32300000000ffffffff863ef3e1a92afbfdb97f31ad0fc7683ee943e9abcf2501590ff8f6551f47e5e51100000001000000": 1,
      "ef51e1b804cc89d182d279655c3aa89e815b1b309fe287d9b2b55d57b90ec68a01000000": 1,
      "1976a9141d0f172a0ecb48aee1be1f2687d2963ae33f71a188ac": 1,
      "0046c32300000000": 1,
      "c37af31116d1b27caf68aae9e3ac82f1477929014d5b917657d0eb49478cb670": 1,
      "304402203609e17b84f6a7d30c80bfa610b5b4542f32a8a0d5447a12fb1366d7f01cc44a0220573a954c4518331561406f90300e8f3358f51928d43c212a8caed02de67eebee01": 1,
      "01000000000102fff7f7881a8099afa6940d42d1e7f6362bec38171ea3edf433541db4e4ad969f00000000494830450221008b9d1dc26ba6a9cb62127b02742fa9d754cd3bebf337f7a55d114c8e5cdd30be022040529b194ba3f9281a99f2b1c0a19c0489bc22ede944ccf4ecbab4cc618ef3ed01eeffffffef51e1b804cc89d182d279655c3aa89e815b1b309fe287d9b2b55d57b90ec68a0100000000ffffffff02202cb206000000001976a9148280b37df378db99f66f85c95a783a76ac7a6d5988ac9093510d000000001976a9143bde42dbee7e4dbe6a21b2d50ce2f0167faa815988ac000247304402203609e17b84f6a7d30c80bfa610b5b4542f32a8a0d5447a12fb1366d7f01cc44a0220573a954c4518331561406f90300e8f3358f51928d43c212a8caed02de67eebee0121025476c2e83188368da1ff3e292e7acafcdb3566bb0ad253f62fc70f07aeee635711000000": 1,
      "494830450221008b9d1dc26ba6a9cb62127b02742fa9d754cd3bebf337f7a55d114c8e5cdd30be022040529b194ba3f9281a99f2b1c0a19c0489bc22ede944ccf4ecbab4cc618ef3ed01": 1,
      "47304402203609e17b84f6a7d30c80bfa610b5b4542f32a8a0d5447a12fb1366d7f01cc44a0220573a954c4518331561406f90300e8f3358f51928d43c212a8caed02de67eebee01": 1,
      "21025476c2e83188368da1ff3e292e7acafcdb3566bb0ad253f62fc70f07aeee6357": 1,
      "0100000001db6b1b20aa0fd7b23880be2ecbd4a98130974cf4748fb66092ac4d3ceb1a54770100000000feffffff02b8b4eb0b000000001976a914a457b684d7f0d539a46a45bbc043f35b59d0d96388ac0008af2f000000001976a914fd270b1ee6abcaea97fea7ad0402e8bd8ad6d77c88ac92040000": 1,
      "a9144733f37cf4db86fbc2efed2500b4f4e49f31202387": 1,
      "001479091972186c449eb1ded22b78e40d009bdf0089": 1,
      "eb696a065ef48a2192da5b28b694f87544b30fae8327c4510137a922f32c6dcf": 1,
      "03ad1d8e89212f0b92c74d23bb710c00662ad1470198ac48c43f7d6f93a2a26873": 1,
      "b8b4eb0b000000001976a914a457b684d7f0d539a46a45bbc043f35b59d0d96388ac0008af2f000000001976a914fd270b1ee6abcaea97fea7ad0402e8bd8ad6d77c88ac": 1,
      "01000000b0287b4a252ac05af83d2dcef00ba313af78a3e9c329afa216eb3aa2a7b4613a18606b350cd8bf565266bc352f0caddcf01e8fa789dd8a15386327cf8cabe198db6b1b20aa0fd7b23880be2ecbd4a98130974cf4748fb66092ac4d3ceb1a5477010000001976a91479091972186c449eb1ded22b78e40d009bdf008988ac00ca9a3b00000000feffffffde984f44532e2173ca0d64314fcefe6d30da6f8cf27bafa706da61df8a226c839204000001000000": 1,
      "1976a91479091972186c449eb1ded22b78e40d009bdf008988ac": 1,
      "00ca9a3b00000000": 1,
      "64f3b0f4dd2bb3aa1ce8566d220cc74dda9df97d8490cc81d89d735c92e59fb6": 1,
      "3044022047ac8e878352d3ebbde1c94ce3a10d057c24175747116f8288e5d794d12d482f0220217f36a485cae903c713331d877c1f64677e3622ad4010726870540656fe9dcb01": 1,
      "01000000000101db6b1b20aa0fd7b23880be2ecbd4a98130974cf4748fb66092ac4d3ceb1a5477010000001716001479091972186c449eb1ded22b78e40d009bdf0089feffffff02b8b4eb0b000000001976a914a457b684d7f0d539a46a45bbc043f35b59d0d96388ac0008af2f000000001976a914fd270b1ee6abcaea97fea7ad0402e8bd8ad6d77c88ac02473044022047ac8e878352d3ebbde1c94ce3a10d057c24175747116f8288e5d794d12d482f0220217f36a485cae903c713331d877c1f64677e3622ad4010726870540656fe9dcb012103ad1d8e89212f0b92c74d23bb710c00662ad1470198ac48c43f7d6f93a2a2687392040000": 1,
      "1716001479091972186c449eb1ded22b78e40d009bdf0089": 1,
      "473044022047ac8e878352d3ebbde1c94ce3a10d057c24175747116f8288e5d794d12d482f0220217f36a485cae903c713331d877c1f64677e3622ad4010726870540656fe9dcb01": 1,
      "2103ad1d8e89212f0b92c74d23bb710c00662ad1470198ac48c43f7d6f93a2a26873": 1,
      "out": 1,
      "range": 1,
      "0100000002fe3dc9208094f3ffd12645477b3dc56f60ec4fa8e6f5d67c565d1c6b9216b36e0000000000ffffffff0815cf020f013ed6cf91d29f4202e8a58726b1ac6c79da47c23d1bee0a6925f80000000000ffffffff0100f2052a010000001976a914a30741f8145e5acadf23f751864167f32e0963f788ac00000000": 1,
      "fe3dc9208094f3ffd12645477b3dc56f60ec4fa8e6f5d67c565d1c6b9216b36e": 1,
      "0815cf020f013ed6cf91d29f4202e8a58726b1ac6c79da47c23d1bee0a6925f8": 1,
      "00f2052a01000000": 1,
      "1976a914a30741f8145e5acadf23f751864167f32e0963f788ac": 1,
      "21036d5c20fa14fb2f635474c1dc4ef5909d4568e5569b79fc94d3448486e14685f8ac": 1,
      "5625": 1,
      "b8f28a772fccbf9b4f58a4f027e07dc2e35e7cd80529975e292ea34f84c4580c": 1,
      "304402200af4e47c9b9629dbecc21f73af989bdaa911f7e6f6c2e9394588a3aa68f81e9902204f3fcf6ade7e5abb1295b6774c8e0abd94ae62217367096bc02ee5e435b67da201": 1,
      "00205d1b56b63d714eebe542309525f484b7e9d6f686b3781b6f61ef925d66d6f6a0": 1,
      "49": 1,
      "21026dccc749adc2a9d0d89497ac511f760f45c47dc5ed9cf352a58ac706453880aeadab210255a9626aebf5e29c0e6538428ba0d1dcf6ca98ffdf086aa8ced5e0d0215ea465ac": 1,
      "fe3dc9208094f3ffd12645477b3dc56f60ec4fa8e6f5d67c565d1c6b9216b36e000000000815cf020f013ed6cf91d29f4202e8a58726b1ac6c79da47c23d1bee0a6925f800000000": 1,
      "0815cf020f013ed6cf91d29f4202e8a58726b1ac6c79da47c23d1bee0a6925f800000000": 1,
      "0011102401000000": 1,
      "4721026dccc749adc2a9d0d89497ac511f760f45c47dc5ed9cf352a58ac706453880aeadab210255a9626aebf5e29c0e6538428ba0d1dcf6ca98ffdf086aa8ced5e0d0215ea465ac": 1,
      "please": 1,
      "note": 1,
      "01000000ef546acf4a020de3898d1b8956176bb507e6211b5ed3619cd08b6ea7e2a09d4100000000000000000000000000000000000000000000000000000000000000000815cf020f013ed6cf91d29f4202e8a58726b1ac6c79da47c23d1bee0a6925f8000000004721026dccc749adc2a9d0d89497ac511f760f45c47dc5ed9cf352a58ac706453880aeadab210255a9626aebf5e29c0e6538428ba0d1dcf6ca98ffdf086aa8ced5e0d0215ea465ac0011102401000000ffffffff00000000000000000000000000000000000000000000000000000000000000000000000003000000": 1,
      "82dde6e4f1e94d02c2b7ad03d2115d691f48d064e9d52f58194a6637e4194391": 1,
      "8e02b539b1500aa7c81cf3fed177448a546f19d2be416c0c61ff28e577d8d0cd": 1,
      "3044022027dc95ad6b740fe5129e7e62a75dd00f291a2aeb1200b84b09d9e3789406b6c002201a9ecd315dd6a0e632ab20bbb98948bc0c6fb204f2c286963bb48517a7058e2703": 1,
      "23210255a9626aebf5e29c0e6538428ba0d1dcf6ca98ffdf086aa8ced5e0d0215ea465ac": 1,
      "01000000ef546acf4a020de3898d1b8956176bb507e6211b5ed3619cd08b6ea7e2a09d4100000000000000000000000000000000000000000000000000000000000000000815cf020f013ed6cf91d29f4202e8a58726b1ac6c79da47c23d1bee0a6925f80000000023210255a9626aebf5e29c0e6538428ba0d1dcf6ca98ffdf086aa8ced5e0d0215ea465ac0011102401000000ffffffff00000000000000000000000000000000000000000000000000000000000000000000000003000000": 1,
      "fef7bd749cce710c5c052bd796df1af0d935e59cea63736268bcbe2d2134fc47": 1,
      "86bf2ed75935a0cbef03b89d72034bb4c189d381037a5ac121a70016db8896ec": 1,
      "304402200de66acf4527789bfda55fc5459e214fa6083f936b430a762c629656216805ac0220396f550692cd347171cbc1ef1f51e15282e837bb2b30860dc77c8f78bc8501e503": 1,
      "01000000000102fe3dc9208094f3ffd12645477b3dc56f60ec4fa8e6f5d67c565d1c6b9216b36e000000004847304402200af4e47c9b9629dbecc21f73af989bdaa911f7e6f6c2e9394588a3aa68f81e9902204f3fcf6ade7e5abb1295b6774c8e0abd94ae62217367096bc02ee5e435b67da201ffffffff0815cf020f013ed6cf91d29f4202e8a58726b1ac6c79da47c23d1bee0a6925f80000000000ffffffff0100f2052a010000001976a914a30741f8145e5acadf23f751864167f32e0963f788ac000347304402200de66acf4527789bfda55fc5459e214fa6083f936b430a762c629656216805ac0220396f550692cd347171cbc1ef1f51e15282e837bb2b30860dc77c8f78bc8501e503473044022027dc95ad6b740fe5129e7e62a75dd00f291a2aeb1200b84b09d9e3789406b6c002201a9ecd315dd6a0e632ab20bbb98948bc0c6fb204f2c286963bb48517a7058e27034721026dccc749adc2a9d0d89497ac511f760f45c47dc5ed9cf352a58ac706453880aeadab210255a9626aebf5e29c0e6538428ba0d1dcf6ca98ffdf086aa8ced5e0d0215ea465ac00000000": 1,
      "unexecuted": 1,
      "0100000002e9b542c5176808107ff1df906f46bb1f2583b16112b95ee5380665ba7fcfc0010000000000ffffffff80e68831516392fcd100d186b3c2c7b95c80b53c77e77c35ba03a66b429a2a1b0000000000ffffffff0280969800000000001976a914de4b231626ef508c9a74a8517e6783c0546d6b2888ac80969800000000001976a9146648a8cd4531e1ec47f35916de8e259237294d1e88ac00000000": 1,
      "0020ba468eea561b26301e4cf69fa34bde4ad60c81e70f059f045ca9a79931004a4d": 1,
      "0063ab68210392972e2eb617b2388771abe27235fd5ac44af8e61693261550447a4c3e39da98ac": 1,
      "0020d9bbfbe56af7c4b7f960a70d7ea107156913d9e5a26b0a71429df5e097ca6537": 1,
      "5163ab68210392972e2eb617b2388771abe27235fd5ac44af8e61693261550447a4c3e39da98ac": 1,
      "0x83": 1,
      "ffffff0000000000": 1,
      "e9b542c5176808107ff1df906f46bb1f2583b16112b95ee5380665ba7fcfc00100000000": 1,
      "nothing": 1,
      "b258eaf08c39fbe9fbac97c15c7e7adeb8df142b0df6f83e017f349c2b6fe3d2": 1,
      "0100000000000000000000000000000000000000000000000000000000000000000000000000000000000000000000000000000000000000000000000000000000000000e9b542c5176808107ff1df906f46bb1f2583b16112b95ee5380665ba7fcfc00100000000270063ab68210392972e2eb617b2388771abe27235fd5ac44af8e61693261550447a4c3e39da98acffffff0000000000ffffffffb258eaf08c39fbe9fbac97c15c7e7adeb8df142b0df6f83e017f349c2b6fe3d20000000083000000": 1,
      "e9071e75e25b8a1e298a72f0d2e9f4f95a0f5cdf86a533cda597eb402ed13b3a": 1,
      "3045022100f6a10b8604e6dc910194b79ccfc93e1bc0ec7c03453caaa8987f7d6c3413566002206216229ede9b4d6ec2d325be245c5b508ff0339bf1794078e20bfe0babc7ffe683": 1,
      "80e68831516392fcd100d186b3c2c7b95c80b53c77e77c35ba03a66b429a2a1b00000000": 1,
      "2468210392972e2eb617b2388771abe27235fd5ac44af8e61693261550447a4c3e39da98ac": 1,
      "91ea93dd77f702b738ebdbf3048940a98310e869a7bb8fa2c6cb3312916947ca": 1,
      "010000000000000000000000000000000000000000000000000000000000000000000000000000000000000000000000000000000000000000000000000000000000000080e68831516392fcd100d186b3c2c7b95c80b53c77e77c35ba03a66b429a2a1b000000002468210392972e2eb617b2388771abe27235fd5ac44af8e61693261550447a4c3e39da98acffffff0000000000ffffffff91ea93dd77f702b738ebdbf3048940a98310e869a7bb8fa2c6cb3312916947ca0000000083000000": 1,
      "cd72f1f1a433ee9df816857fad88d8ebd97e09a75cd481583eb841c330275e54": 1,
      "30440220032521802a76ad7bf74d0e2c218b72cf0cbc867066e2e53db905ba37f130397e02207709e2188ed7f08f4c952d9d13986da504502b8c3be59617e043552f506c46ff83": 1,
      "01000000000102e9b542c5176808107ff1df906f46bb1f2583b16112b95ee5380665ba7fcfc0010000000000ffffffff80e68831516392fcd100d186b3c2c7b95c80b53c77e77c35ba03a66b429a2a1b0000000000ffffffff0280969800000000001976a914de4b231626ef508c9a74a8517e6783c0546d6b2888ac80969800000000001976a9146648a8cd4531e1ec47f35916de8e259237294d1e88ac02483045022100f6a10b8604e6dc910194b79ccfc93e1bc0ec7c03453caaa8987f7d6c3413566002206216229ede9b4d6ec2d325be245c5b508ff0339bf1794078e20bfe0babc7ffe683270063ab68210392972e2eb617b2388771abe27235fd5ac44af8e61693261550447a4c3e39da98ac024730440220032521802a76ad7bf74d0e2c218b72cf0cbc867066e2e53db905ba37f130397e02207709e2188ed7f08f4c952d9d13986da504502b8c3be59617e043552f506c46ff83275163ab68210392972e2eb617b2388771abe27235fd5ac44af8e61693261550447a4c3e39da98ac00000000": 1,
      "still": 1,
      "valid": 1,
      "swapped": 1,
      "0100000000010280e68831516392fcd100d186b3c2c7b95c80b53c77e77c35ba03a66b429a2a1b0000000000ffffffffe9b542c5176808107ff1df906f46bb1f2583b16112b95ee5380665ba7fcfc0010000000000ffffffff0280969800000000001976a9146648a8cd4531e1ec47f35916de8e259237294d1e88ac80969800000000001976a914de4b231626ef508c9a74a8517e6783c0546d6b2888ac024730440220032521802a76ad7bf74d0e2c218b72cf0cbc867066e2e53db905ba37f130397e02207709e2188ed7f08f4c952d9d13986da504502b8c3be59617e043552f506c46ff83275163ab68210392972e2eb617b2388771abe27235fd5ac44af8e61693261550447a4c3e39da98ac02483045022100f6a10b8604e6dc910194b79ccfc93e1bc0ec7c03453caaa8987f7d6c3413566002206216229ede9b4d6ec2d325be245c5b508ff0339bf1794078e20bfe0babc7ffe683270063ab68210392972e2eb617b2388771abe27235fd5ac44af8e61693261550447a4c3e39da98ac00000000": 1,
      "010000000136641869ca081e70f394c6948e8af409e18b619df2ed74aa106c1ca29787b96e0100000000ffffffff0200e9a435000000001976a914389ffce9cd9ae88dcc0631e88a821ffdbe9bfe2688acc0832f05000000001976a9147480a33f950689af511e6e84c138dbbd3c3ee41588ac00000000": 1,
      "36641869ca081e70f394c6948e8af409e18b619df2ed74aa106c1ca29787b96e": 1,
      "00e9a43500000000": 1,
      "1976a914389ffce9cd9ae88dcc0631e88a821ffdbe9bfe2688ac": 1,
      "c0832f0500000000": 1,
      "1976a9147480a33f950689af511e6e84c138dbbd3c3ee41588ac": 1,
      "a9149993a429037b5d912407a71c252019287b8d27a587": 1,
      "87654321": 1,
      "0020a16b5755f7f6f96dbd65f5f0d6ab9418b89af4b1f14a1bb8a09062c35f0dcb54": 1,
      "56210307b8ae49ac90a048e9b53357a2354b3334e9c8bee813ecb98e99a7e07e8c3ba32103b28f0c28bfab54554ae8c658ac5c3e0ce6e79ad336331f78c428dd43eea8449b21034b8113d703413d57761b8b9781957b8c0ac1dfe69f492580ca4195f50376ba4a21033400f6afecb833092a9a21cfdf1ed1376e58c5d1f47de74683123987e967a8f42103a6d48b1131e94ba04d9737d61acdaa1322008af9602b3b14862c07a1789aac162102d8b661b0b3302ee2f162b09e07a55ad5dfbe673a9f01d9f0c19617681024306b56ae": 1,
      "00e9a435000000001976a914389ffce9cd9ae88dcc0631e88a821ffdbe9bfe2688acc0832f05000000001976a9147480a33f950689af511e6e84c138dbbd3c3ee41588ac": 1,
      "00e9a435000000001976a914389ffce9cd9ae88dcc0631e88a821ffdbe9bfe2688ac": 1,
      "0100000074afdc312af5183c4198a40ca3c1a275b485496dd3929bca388c4b5e31f7aaa03bb13029ce7b1f559ef5e747fcac439f1455a2ec7c5f09b72290795e7066504436641869ca081e70f394c6948e8af409e18b619df2ed74aa106c1ca29787b96e01000000cf56210307b8ae49ac90a048e9b53357a2354b3334e9c8bee813ecb98e99a7e07e8c3ba32103b28f0c28bfab54554ae8c658ac5c3e0ce6e79ad336331f78c428dd43eea8449b21034b8113d703413d57761b8b9781957b8c0ac1dfe69f492580ca4195f50376ba4a21033400f6afecb833092a9a21cfdf1ed1376e58c5d1f47de74683123987e967a8f42103a6d48b1131e94ba04d9737d61acdaa1322008af9602b3b14862c07a1789aac162102d8b661b0b3302ee2f162b09e07a55ad5dfbe673a9f01d9f0c19617681024306b56aeb168de3a00000000ffffffffbc4d309071414bed932f98832b27b4d76dad7e6c1346f487a8fdbb8eb90307cc0000000001000000": 1,
      "185c0be5263dce5b4bb50a047973c1b6272bfbd0103a89444597dc40b248ee7c": 1,
      "0307b8ae49ac90a048e9b53357a2354b3334e9c8bee813ecb98e99a7e07e8c3ba3": 1,
      "730fff80e1413068a05b57d6a58261f07551163369787f349438ea38ca80fac6": 1,
      "304402206ac44d672dac41f9b00e28f4df20c52eeb087207e8d758d76d92c6fab3b73e2b0220367750dbbe19290069cba53d096f44530e4f98acaa594810388cf7409a1870ce01": 1,
      "0100000074afdc312af5183c4198a40ca3c1a275b485496dd3929bca388c4b5e31f7aaa0000000000000000000000000000000000000000000000000000000000000000036641869ca081e70f394c6948e8af409e18b619df2ed74aa106c1ca29787b96e01000000cf56210307b8ae49ac90a048e9b53357a2354b3334e9c8bee813ecb98e99a7e07e8c3ba32103b28f0c28bfab54554ae8c658ac5c3e0ce6e79ad336331f78c428dd43eea8449b21034b8113d703413d57761b8b9781957b8c0ac1dfe69f492580ca4195f50376ba4a21033400f6afecb833092a9a21cfdf1ed1376e58c5d1f47de74683123987e967a8f42103a6d48b1131e94ba04d9737d61acdaa1322008af9602b3b14862c07a1789aac162102d8b661b0b3302ee2f162b09e07a55ad5dfbe673a9f01d9f0c19617681024306b56aeb168de3a00000000ffffffff00000000000000000000000000000000000000000000000000000000000000000000000002000000": 1,
      "02000000": 1,
      "e9733bc60ea13c95c6527066bb975a2ff29a925e80aa14c213f686cbae5d2f36": 1,
      "03b28f0c28bfab54554ae8c658ac5c3e0ce6e79ad336331f78c428dd43eea8449b": 1,
      "11fa3d25a17cbc22b29c44a484ba552b5a53149d106d3d853e22fdd05a2d8bb3": 1,
      "3044022068c7946a43232757cbdf9176f009a928e1cd9a1a8c212f15c1e11ac9f2925d9002205b75f937ff2f9f3c1246e547e54f62e027f64eefa2695578cc6432cdabce271502": 1,
      "0100000074afdc312af5183c4198a40ca3c1a275b485496dd3929bca388c4b5e31f7aaa0000000000000000000000000000000000000000000000000000000000000000036641869ca081e70f394c6948e8af409e18b619df2ed74aa106c1ca29787b96e01000000cf56210307b8ae49ac90a048e9b53357a2354b3334e9c8bee813ecb98e99a7e07e8c3ba32103b28f0c28bfab54554ae8c658ac5c3e0ce6e79ad336331f78c428dd43eea8449b21034b8113d703413d57761b8b9781957b8c0ac1dfe69f492580ca4195f50376ba4a21033400f6afecb833092a9a21cfdf1ed1376e58c5d1f47de74683123987e967a8f42103a6d48b1131e94ba04d9737d61acdaa1322008af9602b3b14862c07a1789aac162102d8b661b0b3302ee2f162b09e07a55ad5dfbe673a9f01d9f0c19617681024306b56aeb168de3a00000000ffffffff9efe0c13a6b16c14a41b04ebe6a63f419bdacb2f8705b494a43063ca3cd4f7080000000003000000": 1,
      "1e1f1c303dc025bd664acb72e583e933fae4cff9148bf78c157d1e8f78530aea": 1,
      "034b8113d703413d57761b8b9781957b8c0ac1dfe69f492580ca4195f50376ba4a": 1,
      "77bf4141a87d55bdd7f3cd0bdccf6e9e642935fec45f2f30047be7b799120661": 1,
      "3044022059ebf56d98010a932cf8ecfec54c48e6139ed6adb0728c09cbe1e4fa0915302e022007cd986c8fa870ff5d2b3a89139c9fe7e499259875357e20fcbb15571c76795403": 1,
      "010000000000000000000000000000000000000000000000000000000000000000000000000000000000000000000000000000000000000000000000000000000000000036641869ca081e70f394c6948e8af409e18b619df2ed74aa106c1ca29787b96e01000000cf56210307b8ae49ac90a048e9b53357a2354b3334e9c8bee813ecb98e99a7e07e8c3ba32103b28f0c28bfab54554ae8c658ac5c3e0ce6e79ad336331f78c428dd43eea8449b21034b8113d703413d57761b8b9781957b8c0ac1dfe69f492580ca4195f50376ba4a21033400f6afecb833092a9a21cfdf1ed1376e58c5d1f47de74683123987e967a8f42103a6d48b1131e94ba04d9737d61acdaa1322008af9602b3b14862c07a1789aac162102d8b661b0b3302ee2f162b09e07a55ad5dfbe673a9f01d9f0c19617681024306b56aeb168de3a00000000ffffffffbc4d309071414bed932f98832b27b4d76dad7e6c1346f487a8fdbb8eb90307cc0000000081000000": 1,
      "81000000": 1,
      "2a67f03e63a6a422125878b40b82da593be8d4efaafe88ee528af6e5a9955c6e": 1,
      "033400f6afecb833092a9a21cfdf1ed1376e58c5d1f47de74683123987e967a8f4": 1,
      "14af36970f5025ea3e8b5542c0f8ebe7763e674838d08808896b63c3351ffe49": 1,
      "3045022100fbefd94bd0a488d50b79102b5dad4ab6ced30c4069f1eaa69a4b5a763414067e02203156c6a5c9cf88f91265f5a942e96213afae16d83321c8b31bb342142a14d16381": 1,
      "010000000000000000000000000000000000000000000000000000000000000000000000000000000000000000000000000000000000000000000000000000000000000036641869ca081e70f394c6948e8af409e18b619df2ed74aa106c1ca29787b96e01000000cf56210307b8ae49ac90a048e9b53357a2354b3334e9c8bee813ecb98e99a7e07e8c3ba32103b28f0c28bfab54554ae8c658ac5c3e0ce6e79ad336331f78c428dd43eea8449b21034b8113d703413d57761b8b9781957b8c0ac1dfe69f492580ca4195f50376ba4a21033400f6afecb833092a9a21cfdf1ed1376e58c5d1f47de74683123987e967a8f42103a6d48b1131e94ba04d9737d61acdaa1322008af9602b3b14862c07a1789aac162102d8b661b0b3302ee2f162b09e07a55ad5dfbe673a9f01d9f0c19617681024306b56aeb168de3a00000000ffffffff00000000000000000000000000000000000000000000000000000000000000000000000082000000": 1,
      "82000000": 1,
      "781ba15f3779d5542ce8ecb5c18716733a5ee42a6f51488ec96154934e2c890a": 1,
      "03a6d48b1131e94ba04d9737d61acdaa1322008af9602b3b14862c07a1789aac16": 1,
      "fe9a95c19eef81dde2b95c1284ef39be497d128e2aa46916fb02d552485e0323": 1,
      "3045022100a5263ea0553ba89221984bd7f0b13613db16e7a70c549a86de0cc0444141a407022005c360ef0ae5a5d4f9f2f87a56c1546cc8268cab08c73501d6b3be2e1e1a8a0882": 1,
      "010000000000000000000000000000000000000000000000000000000000000000000000000000000000000000000000000000000000000000000000000000000000000036641869ca081e70f394c6948e8af409e18b619df2ed74aa106c1ca29787b96e01000000cf56210307b8ae49ac90a048e9b53357a2354b3334e9c8bee813ecb98e99a7e07e8c3ba32103b28f0c28bfab54554ae8c658ac5c3e0ce6e79ad336331f78c428dd43eea8449b21034b8113d703413d57761b8b9781957b8c0ac1dfe69f492580ca4195f50376ba4a21033400f6afecb833092a9a21cfdf1ed1376e58c5d1f47de74683123987e967a8f42103a6d48b1131e94ba04d9737d61acdaa1322008af9602b3b14862c07a1789aac162102d8b661b0b3302ee2f162b09e07a55ad5dfbe673a9f01d9f0c19617681024306b56aeb168de3a00000000ffffffff9efe0c13a6b16c14a41b04ebe6a63f419bdacb2f8705b494a43063ca3cd4f7080000000083000000": 1,
      "511e8e52ed574121fc1b654970395502128263f62662e076dc6baf05c2e6a99b": 1,
      "02d8b661b0b3302ee2f162b09e07a55ad5dfbe673a9f01d9f0c19617681024306b": 1,
      "428a7aee9f0c2af0cd19af3cf1c78149951ea528726989b2e83e4778d2c3f890": 1,
      "30440220525406a1482936d5a21888260dc165497a90a15669636d8edca6b9fe490d309c022032af0c646a34a44d1f4576bf6a4a74b67940f8faa84c7df9abe12a01a11e2b4783": 1,
      "0100000000010136641869ca081e70f394c6948e8af409e18b619df2ed74aa106c1ca29787b96e0100000023220020a16b5755f7f6f96dbd65f5f0d6ab9418b89af4b1f14a1bb8a09062c35f0dcb54ffffffff0200e9a435000000001976a914389ffce9cd9ae88dcc0631e88a821ffdbe9bfe2688acc0832f05000000001976a9147480a33f950689af511e6e84c138dbbd3c3ee41588ac080047304402206ac44d672dac41f9b00e28f4df20c52eeb087207e8d758d76d92c6fab3b73e2b0220367750dbbe19290069cba53d096f44530e4f98acaa594810388cf7409a1870ce01473044022068c7946a43232757cbdf9176f009a928e1cd9a1a8c212f15c1e11ac9f2925d9002205b75f937ff2f9f3c1246e547e54f62e027f64eefa2695578cc6432cdabce271502473044022059ebf56d98010a932cf8ecfec54c48e6139ed6adb0728c09cbe1e4fa0915302e022007cd986c8fa870ff5d2b3a89139c9fe7e499259875357e20fcbb15571c76795403483045022100fbefd94bd0a488d50b79102b5dad4ab6ced30c4069f1eaa69a4b5a763414067e02203156c6a5c9cf88f91265f5a942e96213afae16d83321c8b31bb342142a14d16381483045022100a5263ea0553ba89221984bd7f0b13613db16e7a70c549a86de0cc0444141a407022005c360ef0ae5a5d4f9f2f87a56c1546cc8268cab08c73501d6b3be2e1e1a8a08824730440220525406a1482936d5a21888260dc165497a90a15669636d8edca6b9fe490d309c022032af0c646a34a44d1f4576bf6a4a74b67940f8faa84c7df9abe12a01a11e2b4783cf56210307b8ae49ac90a048e9b53357a2354b3334e9c8bee813ecb98e99a7e07e8c3ba32103b28f0c28bfab54554ae8c658ac5c3e0ce6e79ad336331f78c428dd43eea8449b21034b8113d703413d57761b8b9781957b8c0ac1dfe69f492580ca4195f50376ba4a21033400f6afecb833092a9a21cfdf1ed1376e58c5d1f47de74683123987e967a8f42103a6d48b1131e94ba04d9737d61acdaa1322008af9602b3b14862c07a1789aac162102d8b661b0b3302ee2f162b09e07a55ad5dfbe673a9f01d9f0c19617681024306b56ae00000000": 1,
      "these": 1,
      "show": 1,
      "unconventional": 1,
      "instead": 1,
      "determined": 1,
      "recovery": 1,
      "unknown": 1,
      "010000000169c12106097dc2e0526493ef67f21269fe888ef05c7a3a5dacab38e1ac8387f14c1d000000ffffffff0101000000000000000000000000": 1,
      "00209e1be07558ea5cc8e02ed1d80c0911048afad949affa36d5c3951e3159dbea19": 1,
      "00200000": 1,
      "op_checksigverify": 1,
      "0x30450220487fb382c4974de3f7d834c1b617fe15860828c7f96454490edd6d891556dcc9022100baf95feb48f845d5bfc9882eb6aeefa1bc3790e39f59eaa46ff7f15ae626c53e01": 1,
      "ad4830450220487fb382c4974de3f7d834c1b617fe15860828c7f96454490edd6d891556dcc9022100baf95feb48f845d5bfc9882eb6aeefa1bc3790e39f59eaa46ff7f15ae626c53e01": 1,
      "010000000000000000": 1,
      "01000000b67c76d200c6ce72962d919dc107884b9d5d0e26f2aea7474b46a1904c53359f3bb13029ce7b1f559ef5e747fcac439f1455a2ec7c5f09b72290795e7066504469c12106097dc2e0526493ef67f21269fe888ef05c7a3a5dacab38e1ac8387f14c1d00004aad4830450220487fb382c4974de3f7d834c1b617fe15860828c7f96454490edd6d891556dcc9022100baf95feb48f845d5bfc9882eb6aeefa1bc3790e39f59eaa46ff7f15ae626c53e01400d030000000000ffffffffe5d196bfb21caca9dbd654cafb3b4dc0c4882c8927d2eb300d9539dd0b9342280000000001000000": 1,
      "400d030000000000": 1,
      "71c9cd9b2869b9c70b01b1f0360c148f42dee72297db312638df136f43311f23": 1,
      "30450220487fb382c4974de3f7d834c1b617fe15860828c7f96454490edd6d891556dcc9022100baf95feb48f845d5bfc9882eb6aeefa1bc3790e39f59eaa46ff7f15ae626c53e": 1,
      "02a9781d66b61fb5a7ef00ac5ad5bc6ffc78be7b44a566e3c87870e1079368df4c": 1,
      "0100000000010169c12106097dc2e0526493ef67f21269fe888ef05c7a3a5dacab38e1ac8387f14c1d000000ffffffff01010000000000000000034830450220487fb382c4974de3f7d834c1b617fe15860828c7f96454490edd6d891556dcc9022100baf95feb48f845d5bfc9882eb6aeefa1bc3790e39f59eaa46ff7f15ae626c53e012102a9781d66b61fb5a7ef00ac5ad5bc6ffc78be7b44a566e3c87870e1079368df4c4aad4830450220487fb382c4974de3f7d834c1b617fe15860828c7f96454490edd6d891556dcc9022100baf95feb48f845d5bfc9882eb6aeefa1bc3790e39f59eaa46ff7f15ae626c53e0100000000": 1,
      "2102a9781d66b61fb5a7ef00ac5ad5bc6ffc78be7b44a566e3c87870e1079368df4c": 1,
      "010000000001019275cb8d4a485ce95741c013f7c0d28722160008021bb469a11982d47a6628964c1d000000ffffffff0101000000000000000007004830450220487fb382c4974de3f7d834c1b617fe15860828c7f96454490edd6d891556dcc9022100baf95feb48f845d5bfc9882eb6aeefa1bc3790e39f59eaa46ff7f15ae626c53e0148304502205286f726690b2e9b0207f0345711e63fa7012045b9eb0f19c2458ce1db90cf43022100e89f17f86abc5b149eba4115d4f128bcf45d77fb3ecdd34f594091340c0395960101022102966f109c54e85d3aee8321301136cedeb9fc710fdef58a9de8a73942f8e567c021034ffc99dd9a79dd3cb31e2ab3e0b09e0e67db41ac068c625cd1f491576016c84e9552af4830450220487fb382c4974de3f7d834c1b617fe15860828c7f96454490edd6d891556dcc9022100baf95feb48f845d5bfc9882eb6aeefa1bc3790e39f59eaa46ff7f15ae626c53e0148304502205286f726690b2e9b0207f0345711e63fa7012045b9eb0f19c2458ce1db90cf43022100e89f17f86abc5b149eba4115d4f128bcf45d77fb3ecdd34f594091340c039596017500000000": 1,
      "op_2": 1,
      "30450220487fb382c4974de3f7d834c1b617fe15860828c7f96454490edd6d891556dcc9022100baf95feb48f845d5bfc9882eb6aeefa1bc3790e39f59eaa46ff7f15ae626c53e01": 1,
      "304502205286f726690b2e9b0207f0345711e63fa7012045b9eb0f19c2458ce1db90cf43022100e89f17f86abc5b149eba4115d4f128bcf45d77fb3ecdd34f594091340c03959601": 1,
      "0100000039283953eb1e26994dde57b7f9362a79a8c523e2f8deba943c27e826a005f1e63bb13029ce7b1f559ef5e747fcac439f1455a2ec7c5f09b72290795e706650449275cb8d4a485ce95741c013f7c0d28722160008021bb469a11982d47a6628964c1d00009552af4830450220487fb382c4974de3f7d834c1b617fe15860828c7f96454490edd6d891556dcc9022100baf95feb48f845d5bfc9882eb6aeefa1bc3790e39f59eaa46ff7f15ae626c53e0148304502205286f726690b2e9b0207f0345711e63fa7012045b9eb0f19c2458ce1db90cf43022100e89f17f86abc5b149eba4115d4f128bcf45d77fb3ecdd34f594091340c0395960175400d030000000000ffffffffe5d196bfb21caca9dbd654cafb3b4dc0c4882c8927d2eb300d9539dd0b9342280000000001000000": 1,
      "c1628a1e7c67f14ca0c27c06e4fdeec2e6d1a73c7a91d7c046ff83e835aebb72": 1,
      "07": 1,
      "48304502205286f726690b2e9b0207f0345711e63fa7012045b9eb0f19c2458ce1db90cf43022100e89f17f86abc5b149eba4115d4f128bcf45d77fb3ecdd34f594091340c03959601": 1,
      "0102": 1,
      "2102966f109c54e85d3aee8321301136cedeb9fc710fdef58a9de8a73942f8e567c0": 1,
      "21034ffc99dd9a79dd3cb31e2ab3e0b09e0e67db41ac068c625cd1f491576016c84e": 1,
      "9552af4830450220487fb382c4974de3f7d834c1b617fe15860828c7f96454490edd6d891556dcc9022100baf95feb48f845d5bfc9882eb6aeefa1bc3790e39f59eaa46ff7f15ae626c53e0148304502205286f726690b2e9b0207f0345711e63fa7012045b9eb0f19c2458ce1db90cf43022100e89f17f86abc5b149eba4115d4f128bcf45d77fb3ecdd34f594091340c0395960175": 1,
      "format": 1,
      "0144": 1,
      "peer": 1,
      "services": 1,
      "deployment": 1,
      "deployed": 1,
      "141": 1,
      "backward": 1,
      "compatibility": 1,
      "older": 1,
      "software": 1,
      "continue": 1,
      "operate": 1,
      "modification": 1,
      "non": 1,
      "upgraded": 1,
      "validate": 1,
      "redefined": 1,
      "anyone": 1,
      "can": 1,
      "spend": 1,
      "pull": 1,
      "8149": 1,
      "copyright": 1,
      "document": 1,
      "placed": 1,
      "domain": 1
    },
    "bip_references": [
      "BIP 141",
      "BIP 144"
    ],
    "dependencies": [
      "error"
    ]
  }
}